:100000000C94C50F0C94E20F0C94E20F0C94351D68
:100010000C94E20F0C94E20F0C94E20F0C94E20F9C
:100020000C94E20F0C949E1F0C94E20F0C94E20FC0
:100030000C94E20F0C94B51F0C94E20F0C94E20F99
:100040000C9402120C94E20F0C94E20F0C94E20F49
:100050000C94E20F0C94E20F0C94E20F0C94E20F5C
:100060000C94E20F0C94E20F0C94E20F0C94E20F4C
:100070000C94E20F0C94E20F0C94E20F8F4497441F
:10008000C344324562458F45E6454C466A46B7460D
:1000900010473847CB47F347FD471B48434897482D
:1000A000BF48E7480F4937495E499549A249C349C6
:1000B0008F4AC14AE84A134B0540B504F441A000F9
:1000C0000141E2463241A0000040E246303F80005C
:1000D000000541778C4F40C32CE24117BF24C1A4D7
:1000E0008DD9C0E1D8A1C05B6782454520564552F5
:1000F00053494F4E00EF00EE041B04FEFEFEFEEFE0
:10010000904A047F3FEE044306EF90098308000BFA
:10011000AF0A00050006000700EF00EE0CEF9000AC
:1001200080EFB04902EF007F01E181E202E276E177
:10013000834C01530002B4B0020011273C4C5D6CAB
:1001400078849099A2AAB2BAC0C7CCD2D7DCE0E436
:10015000E8EDF0F4F7FBFE010306090B0E10131592
:1001600017191C1E20222426282A2C2D2F31333526
:1001700037393B3D3F4244475E13232D33383C40E3
:100180004346484A4C4E5064000000000000000006
:100190000000000000183C3C3C1818001818000033
:1001A000666666240000000000000000006C6CFE23
:1001B0006C6C6CFE6C6C0000187CC6C2C07C068641
:1001C000C67C1818000000C2C60C183066C60000B5
:1001D00000386C6C3876DCCCCC76000018181830FF
:1001E0000000000000000000000C183030303030FB
:1001F000180C00000030180C0C0C0C0C183000000F
:10020000000000663CFF3C66000000000000001893
:10021000187E1818000000000000000000000060B8
:100220006060C00000000000007C000000000000D2
:100230000000000000000000181800000002060C7A
:10024000183060C08000000000386CC6C6D6C6C634
:100250006C3800000018387818181818187E00003C
:10026000007CC6060C183060C6FE0000007CC60686
:10027000063C0606C67C0000000C1C3C6CCCFE0C48
:100280000C1E000000FEC0C0C0FC0606C67C0000BC
:10029000003860C0C0FCC6C6C67C000000FEC606B2
:1002A0000C18303030300000007CC6C6C67CC6C694
:1002B000C67C0000007CC6C6C67E06060C78000020
:1002C0000000C0C0000000C0C000000000001818FE
:1002D0000000001818300000000C183060C06030BA
:1002E000180C0000000000007E00007E00000000EE
:1002F000006030180C060C1830600000007CC6C688
:100300000C18180018180000007CC6C6DEDEDEDC03
:10031000C07C00000010386CC6C6FEC6C6C6000011
:1003200000FC6666667C666666FC0000003C66C291
:10033000C0C0C0C2663C000000F86C6666666666B7
:100340006CF8000000FE66626878686266FE000075
:1003500000FE66626878686060F00000003C66C27B
:10036000C0C0DEC6663A000000C6C6C6C6FEC6C627
:10037000C6C60000003C181818181818183C0000D1
:10038000001E0C0C0C0C0CCCCC78000000E6666C4B
:100390006C786C6C66E6000000F060606060606223
:1003A00066FE000000C6EEFED6C6C6C6C6C6000083
:1003B00000C6E6F6FEDECEC6C6C60000007CC6C697
:1003C000C6C6C6C6C67C000000FC6666667C606069
:1003D00060F00000007CC6C6C6C6C6D6DE7C0E0035
:1003E00000FC6666667C6C6666E60000007CC6C63D
:1003F00060380CC6C67C0000007E7E5A181818189B
:10040000183C000000C6C6C6C6C6C6C6C67C0000EC
:1004100000C6C6C6C6C6C66C3810000000C6C6C632
:10042000C6D6D6FE6C6C000000C6C6C67C387CC63C
:10043000C6C6000000666666663C1818183C0000D8
:1004400000FEC68C183060C2C6FE0000003C303092
:1004500030303030303C00000080C0E070381C0E7E
:1004600006020000003C0C0C0C0C0C0C0C3C0000B8
:1004700010386CC600000000000000000000000002
:1004800000000000000000FF30180C000000000019
:100490000000000000000000780C7CCCCC7600004E
:1004A00000E06060786C6666667C0000000000001A
:1004B0007CC6C0C0C67C0000001C0C0C3C6CCCCCC4
:1004C000CC760000000000007CC6FEC0C67C0000A8
:1004D000001C3632307C30303078000000000000E4
:1004E00076CCCCCC7C0CCC7800E060606C76666618
:1004F00066E600000018180038181818183C0000AC
:10050000000606000E0606060666663C00E0606011
:10051000666C786C66E60000003818181818181811
:10052000183C000000000000ECFED6D6D6D6000035
:1005300000000000DC6666666666000000000000E1
:100540007CC6C6C6C67C000000000000DC6666668D
:100550007C6060F00000000076CCCCCC7C0C0C1EE3
:1005600000000000DC76666060F000000000000023
:100570007CC6701CC67C000000103030FC3030306F
:10058000361C000000000000CCCCCCCCCC760000A7
:1005900000000000C6C6C66C381000000000000055
:1005A000C6C6D6D6FE6C000000000000C66C383807
:1005B0006CC6000000000000C6C6C6C67E060C78E9
:1005C00000000000FECC183066FE0000000E181877
:1005D00018701818180E0000001818181818181895
:1005E0001818000000701818180E1818187000005D
:1005F00076DC000000000000000000000000001099
:10060000386CC6C6FE000000000C12120C00000080
:10061000000000000000003C429DA5A5BE413E0038
:10062000001E2140FC40FC40211E0000001C222036
:10063000207C2020207E0000103854545038145460
:1006400054381000003C46C6CCD8D8C6C3C3CE0030
:10065000006C6C00780C7CCCCC76000000000000B4
:10066000000000000000000000000000000000008A
:10067000000000000000000000000000000000007A
:10068000000000000000000000000000000000006A
:10069000000000000000000000000000000000005A
:1006A000000000000000000000000000000000004A
:1006B000000000000000000000000000000000003A
:1006C000000000000000000000000000000000002A
:1006D000000000000000000000000000000000001A
:1006E000000000000000000000000000000000000A
:1006F00000000000000000000000000000000000FA
:1007000000000000000000000000000000000000E9
:1007100000000000000000000000000000000000D9
:1007200000000000000000000000000000000000C9
:1007300000000000000000000000000000000000B9
:1007400000000000000000000000000000000000A9
:100750000000000000000000000000000000000099
:100760000000000000000000000000000000000089
:100770000000000000000000000000000000000079
:100780000000000000000000000000000000000069
:10079000000000000010386CC6C6FEC6C6C60000C9
:1007A000007C6060607C6666667C0000007C66663B
:1007B000667C6666667C0000007E606060606060EB
:1007C00060600000003E26262626264646FF8181E0
:1007D00000FE66626878686266FE0000009254540B
:1007E0005438545454920000007CC606063C060659
:1007F000C67C000000C6CEDEFEF6E6C6C6C6000019
:1008000000E6666C6C786C6C66E60000007E6666DE
:100810006666666666C6000000C6EEFED6C6C6C63A
:10082000C6C6000000C6C6C6C6FEC6C6C6C600000E
:10083000007CC6C6C6C6C6C6C67C000000FEC6C6CC
:10084000C6C6C6C6C6C6000000FC6666667C60609A
:1008500060F00000003C66C2C0C0C0C2663C000040
:10086000007E7E5A18181818183C0000006666664C
:10087000663C18181878000000107CD6D6D6D6D65C
:10088000D67C100000C6C6C67C387CC6C6C6000032
:1008900000C6C6C6C6C6C6C6C6FF010100C6C6E6B5
:1008A0003E060606060600000092929292929292EE
:1008B00092FE000000C1C1C1C1F9CDCDCDF900004B
:1008C00000606060607C6666667C00000078C4063C
:1008D000023E0206C4780000003F6666663E366649
:1008E000666700002400FE66626878686266FE0043
:1008F0002418C6CEDEFEF6E6C6C60000009292922E
:100900009292929292FF010100F03030303E3333E8
:10091000333E000000889CB6A2E2A2B69C8800008C
:10092000000000780C0C7CCCCC760000003C7060A1
:10093000786C6666663C00000000007C66667C663B
:10094000667C00000000007E606060606060000007
:100950000000003E2626264646FF81810000007CDE
:10096000C6C6FEC0C67C0000000000925454385435
:100970005492000000000078CC0C380CCC780000B9
:10098000000000C6CEDEFEF6E6C60000000000E66F
:100990006C6C786C6CE600000000007E6666666633
:1009A00066C60000000000C6EEFED6C6C6C6000041
:1009B000000000C6C6C6FEC6C6C600000000007C19
:1009C000C6C6C6C6C67C0000000000FEC6C6C6C6B7
:1009D000C6C60000000000DC6666667C6060F00051
:1009E0000000007CC6C0C0C0C67C00000000007EC5
:1009F0007E5A1818183C00000000006666667E3CAF
:100A000018181800000010107CD6D6D6D67C10001E
:100A1000000000C6C67C387CC6C60000000000C6C8
:100A2000C6C6C6C6C6FF01010000006666663E0671
:100A300006060000000000929292929292FE000040
:100A4000000000C2C2C2F2DADAF200000000003098
:100A500030303C36363C00000000007088043C0416
:100A6000887000000000003E66663E366666000044
:100A70000024007CC6C6FEC0C67C0000003C46C602
:100A8000CCCCC6C3C3CE0000002418C6CEDEFEF612
:100A9000E6C60000000000929292929292FF01013D
:100AA000000000F030303C36363C0000000000888A
:100AB0009CB6E2B69C880000006C6C00780C7CCC84
:100AC000CC7600000063737B7F6F67636363000015
:100AD000007CC6C6C67C00FE000000004B6D0043D3
:100AE00000417585002D0056006C2F3130304B6D64
:100AF0000068006C2F0020202020004B6D2F680024
:100B00004B6D004500460034003300320031002FA9
:100B100068004B6D004D6178006C00496E730031C8
:100B20003030006C2F0020202D2D00202020202090
:100B30000020006800680020006D00200048696EF9
:100B40007465720054657874004D6178004D696E6B
:100B50000052656966656E00416E7A2E205A796C86
:100B6000696E6465720045696E73707269747A7536
:100B70006E67004765736368772E2053656E736FE9
:100B800072004E656967756E67004B756E64656EC1
:100B9000642E20496E7465722E004B756E64656E0E
:100BA000642E2066866C6C69670042656E7A696E99
:100BB000707265697300556872004E722E2064650C
:100BC0007220424320416E7A656967650068005370
:100BD00069636865726865697473706175736500CF
:100BE0004175730020416E00416E7A65696765202A
:100BF000537072696E74004175730020416E00532A
:100C000063722E646576656C6F7000417573004C7D
:100C1000415000494E54005363722E73746F7070CC
:100C2000756872004175730020416E00416E7A2E26
:100C300042657363686C65756E6967756E670041C0
:100C400075730020416E00416E7A2E20472D42655B
:100C50006C617374756E67004175730020416E009E
:100C6000416E7A65696765204D6F746F72005665D5
:100C700072616273636869652E0042656E7A696E9F
:100C80007374616E6400447265687A61686C0041D7
:100C900075730020416E0055687200417573002025
:100CA000574200203556004E424200204E42004C32
:100CB000616D626461206D657373756E670020639A
:100CC000636D0042656C6575636874756E67004698
:100CD000617262656E003A006C0047004D617800F9
:100CE0004D617800593A00583A00593A00583A0094
:100CF00073005A6569743A0042657363686C2E200C
:100D0000766F6E20302061756600534E0048442E89
:100D100030370046570032002E0048570000202090
:100D2000207777772E7070662E626F7265632E6300
:100D30007A004E4243005245534554204F4B0052D7
:100D400045534554203F0056004C616D626461007C
:100D50006D730045696E73707269747A2D5A656996
:100D6000740020202020202020202020202020204F
:100D70002020202020202020002020202020202093
:100D80002020202020202020202020202020200083
:100D900043002D2D2D004D6F746F726F6C74656D57
:100DA000702E004D617800447265687A61686C004D
:100DB0007265640079656C6C6F773E00677265657B
:100DC0006E3C004146523D004146522A313020617E
:100DD00074203556004146522A313020617420304B
:100DE00056004C616D62646120766F6C746167655A
:100DF0000050414C20414B540050414C20414B5439
:100E00000050414C20414B5400500050414C204177
:100E10004B54005000507253706F74204E003135A7
:100E20002D004B4F4C2D005653542D004345522D51
:100E3000005500544D5000424C0045787400590054
:100E400058004E616B6C6F6E002F68004B6D004751
:100E500065736368772E3A0073005A6569743A00C7
:100E60006D004D65737373747265636B650000008C
:100E700000000000000000000000000000003F0033
:100E8000FF00C000000000000000000000000000A3
:100E90000000000000000000000000000000000052
:100EA0000000000000000F00FF00FF00FE00000037
:100EB0000000000000000000000000000000000032
:100EC0000000000000000000000000000000010021
:100ED000FF00FF00FF00FF00C00000000000000056
:100EE0000000000000000000000000000000000002
:100EF00000000000000000000F00FF00FF00FF00E6
:100F0000FF00F800000000000000000000000000EA
:100F100000000000000000000000000000000000D1
:100F200000007F00FF00FF00FF00FF00FE00000048
:100F300000000000000000000000000000000000B1
:100F4000000000000000000000000300FF00FE00A1
:100F5000000000003F00FF008000000000000000D3
:100F60000000000000000000000000000000000081
:100F7000000000001F00FF00E00000000000030070
:100F8000FF00E00000000000000000000000000082
:100F900000000000000000000000000000007F00D2
:100FA000FE0000000000000000007F00F8000000CC
:100FB0000000000000000000000000000000000031
:100FC0000000000000000300FF00E000000000003F
:100FD000000000000F00FF00000000000000000003
:100FE0000000000000000000000000000000000001
:100FF0000F00FF0080000000000000000000010062
:10100000FF00E00000000000000000000000000001
:10101000000000000000000000003F00FC00000095
:10102000000000000000000000003F00F800000089
:1010300000000000000000000000000000000000B0
:1010400000000100FF00F0000000000000000000B0
:10105000000000000F00FF00000000000000000082
:101060000000000000000000000000000F00FF0072
:1010700080000000000000000000000000000100EF
:10108000FF00F00000000000000000000000000071
:10109000000000000000FF00FE0000000000000053
:1010A000000000000000000000001F00FF00000022
:1010B00000000000000000000000000000000F0021
:1010C000FF00F00000000000000000000000000031
:1010D000000000000300FF00FF000000000000000F
:1010E0000000000000000100FF00FF00C000000041
:1010F00000000000000000000000000000000000F0
:101100001F00FF00FF00FF000000000000000000C3
:101110007F00FF00FE000000000000000000000053
:101120000000000000000000000000007F00FF0041
:10113000FF00FF00000000000300FF00FF00F000C0
:10114000000000000000000000000000000000009F
:1011500000000000000000000300FF00FF00E000AE
:1011600000000700FF00FF00C000000000000000BA
:10117000000000000000000000000000000000006F
:101180000000000000000F00FC0000000300FF0052
:10119000F00000000000000000000000000000005F
:1011A000000000000000000000000000000000003F
:1011B00000001F00000000003000000000000000E0
:1011C000000000000000000000000000000000001F
:1011D0000000000000000000000000000300C0004C
:1011E00000001800000000000000000000000000E7
:1011F00000000000000000000000000000000000EF
:101200000000000000000000E000000018000000E6
:1012100000000000000000000000000000000000CE
:1012200000000000000000000000000000000000BE
:101230000000300000007C00000000000000000002
:10124000000000000000000000000000000000009E
:10125000000000000000000000000000080007007F
:10126000F800000000000000000000000000000086
:10127000000000000000000000000000000000006E
:1012800000000000000000003F00F000000000002F
:10129000000000000000000000000000000000004E
:1012A000000000000000000000000000000000003E
:1012B00000007F00FF00FF00FF00FF00FF00FF00B5
:1012C000FF00FF00FF00F800000000000000000029
:1012D000000000000000000000000000FE00000010
:1012E0000000000000001F00FF00FF00FF00FF00E3
:1012F000FF00FF00FF00FF00FF00FF0000000000F4
:10130000000000000000600000000000000000007D
:1013100000000000000000001F00FF00FF00FF00B1
:10132000FF00FF00FF0000000000000000000000C0
:1013300000000000000000000000000000000000AD
:10134000000000000000000000000000000000009D
:10135000000000000000000000000000000000008D
:1013600000003F00FF00FF00FF00FF00FF00FF0044
:10137000FF0000000000000000000000000000006E
:1013800000000000000000001F00FF00FF00FF0041
:10139000FF00FF00FF00FF00FF00FF00FF00F00064
:1013A000000000000000000000000000000000003D
:1013B00000003F00FF00FF00FF00FF00FF00FF00F4
:1013C000FF00FF00FF00FF00FE0000000000000023
:1013D000000000000000000000009200000000007B
:1013E0009200000000009200000000004900000090
:1013F00000004900000000004900000000009200C9
:1014000000000000920000000000920000003F0079
:10141000FF00F800200000000E002000000009007E
:10142000200000000900200000000900200000004A
:101430000E00200000000800100000001000C8008E
:1014400000002600640000004C003300FF009800FC
:101450001F00FF00F0003C0000000F00E70000004C
:1014600042000000010008008000390080007F0079
:10147000F800800004006000800009000000020005
:10148000190000000A0000004100060000000C00E6
:10149000000040008000000008000000A0004000A4
:1014A000000008000000A00020000000080000006C
:1014B0004000100000000800000000000F00FF00C6
:1014C000F8000000000000008000000000000000A4
:1014D000040090000000000000000200A0000000D6
:1014E000000001000100C0004000000009000000F1
:1014F000800048000000060000008000300000006E
:1015000006004200A1003000000019004100C100A7
:101510004C0000000000C0008100800000000300BB
:10152000CA00A900E000000000002900CA00000075
:101530000000000018008C0000000000000078008F
:101540008F000000000040000500D00001000000F6
:10155000220042002100220000001100240012009D
:1015600044000000FF00FC009F00FF00800011000D
:10157000240012004400000022004200210022004A
:10158000000040000500D0000100000000007800CD
:101590008F0000000000000018008C000000000018
:1015A00000002900CA00000000000300CA00A900D2
:1015B000E00000000000C000810080000000190071
:1015C0004100C1004C00000006004200A1003000B4
:1015D000000006000000800030000000090000004C
:1015E00080004800000001000100C0004000000031
:1015F00000000200A00000000000000004009000B5
:10160000000000000000000080000000000000005A
:101610000000000000007F00C0004000700040009B
:1016200078004000580040004C0040004C00400052
:1016300044007F00C4003F00A4003F00A4003F001E
:10164000A4003F00A4003F00A4003F0098003F001A
:1016500080003F0080003F0080000000000000008C
:10166000000000000000000000000000000000007A
:1016700000000000000040000000E000700040009A
:1016800000000000000000000000000000006000FA
:10169000600060006000FF00F000FF00F000FF004D
:1016A000F000FF00F000FF00F000FF00F000FF007E
:1016B000F000FF00F000FF00F0000000000000005C
:1016C000000000000000000000000000000000001A
:1016D0000000000000000000000000000000070003
:1016E000C0000F00E00018003000380018006C0047
:1016F0004C006600CC0063008C0061000C006000B0
:101700000C0030001800180030000F00E000070047
:10171000C000000000000000000000000000000009
:1017200000000000000000000000000000000000B9
:10173000000000000000300000003E0000003E00FD
:10174000000030000000300000003E0000003E00BD
:10175000000030000000300000003E0000003E00AD
:101760000000300000003000000078000000FC00A5
:101770000000FC00000078000000300000000000C5
:101780000000000000000000000000000000000059
:101790000000000000000000000000000000070042
:1017A000CC000F00F800180038003000780060000E
:1017B000CC0061008C0063000C0066000C007C0013
:1017C0000C0038001800380030006F00E0004700BF
:1017D000C000000000000000000000000000000049
:1017E00000000000000000000000000000000000F9
:1017F00000000000C0000000000000000000C00069
:101800000000000000000700C00000000000000011
:101810000000C0000000000000000700C000000041
:10182000000000000000C00000000F0000000700E2
:10183000C100C000100080000000C20020000E00A7
:1018400060001F00FE002000010018002000C20000
:101850004000000086004000C200800010004100EF
:101860008100E3000000100020000300F2000000EF
:10187000280010000100E20000002800080000001D
:10188000C200000010000400000002000000000080
:101890000300FF00FE000000000000000000000048
:1018A0000000000000001F00FF00FF00FC0000001F
:1018B0000000000000000000000000000000000028
:1018C0000000000000000000FF00FF00FF00FF001C
:1018D0008000000000000000000000000000000088
:1018E00000000000000000000300FF00FF00FF00F8
:1018F000FF00F000000000000000000000000000F9
:10190000000000000000000000000F00E0000000E8
:1019100000000300FE0000000000000000000000C6
:101920000000000000000000000000003F00000078
:101930000000000000007F00C00000000000000068
:101940000000000000000000000000000000FC009B
:1019500000000000000000000F00F8000000000080
:101960000000000000000000000000000000030074
:10197000F00000000000000000000100FF00000077
:101980000000000000000000000000000000000057
:101990000F00C000000000000000000000003F0039
:1019A000E000000000000000000000000000000057
:1019B00000007F00000000000000000000000000A8
:1019C0000700FC0000000000000000000000000014
:1019D00000000100FC00000000000000000000000A
:1019E00000000000FF008000000000000000000078
:1019F000000000000F00F0000000000000000000E8
:101A00000000000000001F00FF00FF00C0000000F9
:101A1000000000000100FF00800000000000000046
:101A200000000000000000000300FF00FF00C000F5
:101A3000000000000F00FF00FE000000000000009A
:101A40000000000000000000000000007F00FF0018
:101A5000800000001F00FF00FF00F00000000000F9
:101A60000000000000000000000000000000000076
:101A7000070000000700FF00FF00F8000000000062
:101A80000000000000000000000000000000000056
:101A90000000070000000F00FF00C0000000000071
:101AA0000000000000000000000000000000000036
:101AB00000000000070000001F00C0000000000040
:101AC0000000000000000000000000000000000016
:101AD000000000000000070000001C0000000000E3
:101AE00000000000000000000000000000000000F6
:101AF0000000000000000000070000003C000000A3
:101B000000000000000000000000000000000000D5
:101B10000000000000000000000007000000380086
:101B200000000000000000000000000000000000B5
:101B3000000000000000000000000000070000009E
:101B40007000000000000000000000000000000025
:101B50000000000000000000000000000000030082
:101B60008000E00000000000000000000000000015
:101B70000000000000000000000000000000000065
:101B80000100C000E00000000000000000000000B4
:101B90000000000000000000000000000000000045
:101BA00000000000E00070000000000000000000E5
:101BB0000000000000000000000000000000000025
:101BC000000000000000700038000000000000006D
:101BD0000000000000000000000000000000000005
:101BE000000000000000000070003800000000004D
:101BF00000000000000000000000000000000000E5
:101C00000000000000000000000070001C00000048
:101C100000000000000000000000000000000000C4
:101C2000000000000000000000000000E0001C00B8
:101C300000000000000000000000000000000000A4
:101C40000000000000000000000000000000E000B4
:101C50001C00000000000000000000000000000068
:101C60000000000000000000000000000000000074
:101C7000E0001C0000000000000000000000000068
:101C80000000000000000000000000000000000054
:101C90000100C0001C000000000000000000000067
:101CA0000000000000000000000000000000000034
:101CB00000000100C000380000000000000000002B
:101CC0000000000000000000000000000000000014
:101CD0000000000003008000700000000000000011
:101CE00000000000000000000000000000000000F4
:101CF00000000000000003008000E0000000000081
:101D000000000000000000000000000000000000D3
:101D10000000000000000000000000000300F000D0
:101D2000E3000600FF003F001C0000000300C700A6
:101D30009800060078007800F300FF00000006001D
:101D40000900F3000600C10061003E00000006002B
:101D50002C005C000600C400C100880030000000B8
:101D6000060002000B000600C100610041000000F7
:101D700006000C005A000600C000C10088003000B8
:101D80000000060002000B000600C10061004100D7
:101D9000000006000C0059000600C000C1008800C9
:101DA00030000000060002000B000600C1006100C8
:101DB0004100000006000C0058008600C000C10071
:101DC000880030000000060002000B000600FE0044
:101DD0007F004100000006000C0058004600C000D3
:101DE000F100F0003000000006000300FB000600D8
:101DF000C10064007F001F0086000C005800260010
:101E0000C000C100800030000000060002000B008E
:101E10000600C10062004100000006000C005800EE
:101E20001600C000C1008000300000000600020063
:101E30000B000600C10061004100000006000C001C
:101E400058000E00C000C1008000300000000600F5
:101E500002000B000600C100610041000000060006
:101E60002C0058000600C400C100800030000000B3
:101E700006000A000B000600C100610041000000DE
:101E80000300C70098000600780079008000300049
:101E900000000300F2000B00F600FF0061004100AB
:101EA0000000000000000000000000000000000032
:101EB0000000000000000000000000000000000022
:101EC000000000001500500053009400310018007D
:101ED000F3009E000900200085004200530094009A
:101EE000FE00FE005300940085004200090020001F
:101EF000F3009E00310018005300940015005000BC
:101F000000000000000000000000000000000000D1
:101F1000000000003A003A003A003A003A003A0065
:101F20003A003A002D333A002D323A002D313A0072
:101F30004C4150004C4150004C4150004C4150002D
:101F40003A003A003A003A003A003A003A003A00C1
:101F50002D333A002D323A002D313A00494E5400CB
:101F6000494E5400494E5400494E54005A65697414
:101F70003A0053746F707075687200204C434420AF
:101F80004F4B00204C4344203F0011241FBECFEF95
:101F9000D0E1DEBFCDBF11E0A0E0B1E0E6E6FAEFB0
:101FA00002C005900D92A830B107D9F714E0A8E05F
:101FB000B1E001C01D92AE34B107E1F70E94BA133F
:101FC0000C94327D0C94000090910C0291509093EF
:101FD0000C0280917D03981710F0139801C0139A9A
:101FE000992319F483E080930C02089522E024BD24
:101FF00083E085BDEEE6F0E080818260808389EF3A
:1020000087BD109280008FE080938100EFE6F0E0C2
:10201000808182608083809124019091250190933A
:1020200089008093880080918A0390918B0390931C
:102030008B0080938A002093B00087E480937C001B
:1020400086EC80937A0010927B00EA9AE29A80E212
:10205000809369008FB780688FBF089588E082B948
:1020600081B915B890EF94B980EC88B917B89BB9CD
:102070009AB90895982F80917A0086FDFCCF905CE4
:1020800090937C0080917A00806480937A00089518
:1020900080917A0086FDFCCF809178009091790044
:1020A000089580911E048823E1F18091BB03882369
:1020B000C1F1189B36C080911F0190912001A09121
:1020C0002101B09122018093A8039093A903A093CA
:1020D000AA03B093AB0380915D0390915E03A0913E
:1020E0005F03B091600380932C0290932D02A09324
:1020F0002E02B0932F021092CE031092CD03809146
:10210000EC019091ED01A091EE01B091EF0180936F
:10211000420290934302A0934402B093450210926E
:102120001E040895AF92CF92EF92FF920F931F93E8
:1021300084E00E945231E091FD01F091FE01209176
:102140000803309109032E0F3F1F442755272617F8
:10215000370748075907D0F480911E048823B1F44B
:10216000E85AFD4FF093FE01E093FD012FE0A22E0F
:1021700093E0C92E85E1E82EF12C08E110E023E080
:102180004DE266E385EB92E00E94A1541F910F910E
:10219000FF90EF90CF90AF9008958F929F92AF9263
:1021A000CF92DF92EF92FF920F931F9300918303E0
:1021B0001091840378010894E11CF11CF0928403CF
:1021C000E092830384EFE81681E0F80699F46091C9
:1021D00027037727882777FD8095982F0E94EB7833
:1021E00026E636E646EE5FE30E943B760E948A745E
:1021F000609364038091B100882311F01899F8C0AE
:1022000099EEE91693E0F90608F4F2C0075E134070
:102210001093840300938303809156038F5F809310
:10222000560391E090937E038C3309F076C01092B0
:1022300056038091D3038F5F8093D3038C3359F47B
:102240001092D3038091D4038F5F8093D40388319D
:1022500011F41092D403189960C080911E04882351
:1022600009F45BC080910204882309F456C080EF12
:1022700084B98BED8093640080E58CBDB1E0DB2EEA
:10228000DDBC8090790390907A036091D403772726
:1022900088279927DF9220912A0430912B043F93BD
:1022A0002F93A4E0AA2EF4E2CF2EE4E0EE2E02E07B
:1022B00020E340E00E947C2CE0902A04F0902B0464
:1022C0000091790310917A0351E0C52E23E04BE28F
:1022D00066E58AE30E94822A8090790390907A03CF
:1022E0006091D303772788279927DF9220912A04CA
:1022F00030912B043F932F9344E2C42E34E6E32E17
:1023000002E020E340E00E947C2C8DB79EB7069649
:102310000FB6F8949EBF0FBE8DBF8091BB0388237C
:1023200041F480911D0190911E01892B09F04CC050
:1023300014C08091EC019091ED01A091EE01B0915B
:10234000EF010196A11DB11D8093EC019093ED0169
:10235000A093EE01B093EF010CC0109246031092CF
:102360004503109286031092850310921304109275
:1023700012041092BB0380914C018093550310927C
:102380004C012091840030918500809188009091CB
:1023900089008217930760F51092850010928400DF
:1023A00080911F0190912001A0912101B091220103
:1023B0000196A11DB11D80931F0190932001A09350
:1023C0002101B093220114C08091EC019091ED01A4
:1023D000A091EE01B091EF010196A11DB11D809376
:1023E000EC019093ED01A093EE01B093EF01B5CF16
:1023F0001F910F91FF90EF90DF90CF90AF909F9043
:102400008F9008951F920F920FB60F9211242F9361
:102410003F934F935F936F937F938F939F93AF936C
:10242000BF93EF93FF938091300290913102019618
:1024300090933102809330020E94DA1F0E94CD10E7
:102440000E94E40F0E94D9510E940C6A0E94CA6B3C
:102450008091B100882349F08091D5039091D603F3
:1024600001969093D6038093D503FF91EF91BF918E
:10247000AF919F918F917F916F915F914F913F911C
:102480002F910F900FBE0F901F9018958F929F92D3
:10249000AF92CF92DF92EF92FF920F931F93189912
:1024A0000BC161E080913603909137030E94D128DF
:1024B00081E00E9476561899FFC01092BB031092DB
:1024C000B1000E94C214882311F00E94C21410921D
:1024D0007A000E94A41BA1E0DA2ED0921E04109272
:1024E00046031092450380910204882309F454C0E6
:1024F00061E080912A0490912B040E94D128809061
:10250000790390907A036091D403772788279927DD
:10251000DF9220912A0430912B043F932F93F4E013
:10252000AF2EE4E2CE2E54E0E52E02E020E340E0C0
:102530000E947C2CE0902A04F0902B0400917903F7
:1025400010917A0341E0C42E23E04BE266E58AE372
:102550000E94822A8090790390907A036091D3033D
:10256000772788279927DF9220912A0430912B041E
:102570003F932F9334E2C32E24E6E22E02E020E3C1
:1025800040E00E947C2C8DB79EB706960FB6F8945B
:102590009EBF0FBE8DBF03C081E00E94752782E001
:1025A0000E94752710927D039091020430E22FED76
:1025B0000DC0992311F03BB901C01BB82598209399
:1025C000640013BE83B7816083BF8895189BF1CFE9
:1025D0000E942E10109264000E94F60F0E94212F7C
:1025E0000E94511B0E94B21B83E080937D0361E037
:1025F00080913603909137030E94D12881E00E9498
:10260000932782E00E949327E090EE03F090EF037F
:10261000002711278091170190911801A0911901AD
:10262000B0911A01E80EF91E0A1F1B1F60911F01CD
:1026300070912001809121019091220124E630E0E7
:1026400040E050E00E94147C2E153F0540075107E2
:1026500080F082E0A82E01E0C02E1BE0E12EF12CDC
:1026600008E210E022E04BE467E384EF92E00E948E
:10267000A154809102038F3011F40E949A1C109291
:102680004D0110922203109221038FEF9FEF909340
:1026900012028093110281E090E0909331018093C7
:1026A000300190931C0180931B0181E0809388038B
:1026B00010924C010E9476561F910F91FF90EF905F
:1026C000DF90CF90AF909F908F90089580913B01C5
:1026D00090913C01019690933C0180933B01809145
:1026E0004C018430A9F1853048F48130F9F0813013
:1026F00098F0823009F18330E1F524C0873081F110
:10270000883028F4853041F1863099F527C088302B
:1027100049F1893071F52AC00E94E41B0E945110D2
:102720000E9492100E94EA5781E01DC00E94BA21C7
:102730000E94672382E017C00E9420250E94CA22BF
:1027400083E011C00E948A250E94BC3B84E00BC03C
:102750000E94CC2085E007C086E005C087E003C06A
:1027600088E001C089E080934C0108958AE080935D
:102770004C0108951F930E942E1011E010936103E5
:102780000E94212F80912A0490912B04909337036B
:10279000809336038091790390917A039093630339
:1027A000809362038091D7039091D80390933C0368
:1027B00080933B039093ED038093EC030E94511BA5
:1027C0000E94B21B0E941E180E940B1A0E94F60F54
:1027D00083E080937D0310935301109301041093C1
:1027E000050210937F03109352011092320187E08B
:1027F00080937C03109349011092020480E498E3D3
:1028000090930903809308031093440310921601D8
:102810008CE08093D40388E085B90E9416740E94EE
:102820004C5787E690E0A0E0B0E08093E3019093FE
:10283000E401A093E501B093E60182EC90E0A0E012
:10284000B0E08093000290930102A0930202B09343
:10285000030287E88093040280EA80935B038FE0A1
:102860000E949A1C0E9446120E94B21C0E94A2243E
:10287000809102038F3019F00E943B3502C00E9404
:1028800082530E94A2240E946613ECCFEF92FF9223
:102890000F931F93CF93DF93CDB7DEB724970FB677
:1028A000F894DEBF0FBECDBF69837A838B839C8390
:1028B000B9017E010894E11CF11CC901DA01F7019C
:1028C000019724F001900E94C27CFACFF70113E037
:1028D00020E030E017C090810BC0DA010E94B57C87
:1028E000802D981751F0DA01092E0E94C27C1150F8
:1028F000112399F781E090E00AC031962F5F3F4F96
:102900004F5F5F4F2617370734F380E090E024963F
:102910000FB6F894DEBF0FBECDBFDF91CF911F91F0
:102920000F91FF90EF9008951F93CF93DF93409105
:10293000080150910901EA01C80FD91F20E030E0D9
:1029400010E0FB01E81BF90B09C0DE01A20FB31F69
:102950000E94B57C802D180F2F5F3F4F2E173F0729
:10296000A1F7460F571F612F77278827992721E066
:1029700030E00E944614992787FD9095DF91CF9112
:102980001F910895AF92BF92CF92DF92EF92FF9284
:102990000F931F93CF93DF93609184007091850014
:1029A0004091080150910901425A5E4F88279927AA
:1029B00022E030E00E944614882309F0BBC1409118
:1029C000080150910901405A5E4F60911F017091BA
:1029D0002001809121019091220124E030E00E94A9
:1029E0004614882309F0A6C14091080150910901BD
:1029F0004C595E4F60915D0370915E0380915F035F
:102A00009091600324E030E00E944614882309F08E
:102A100091C1409108015091090148595E4F609160
:102A20000603709107038827992722E030E00E946F
:102A30004614882309F07EC1409108015091090194
:102A400046595E4F6091EC017091ED018091EE016D
:102A50009091EF0124E030E00E944614882309F0B1
:102A600069C1C0E0D0E058E9A52E53E0B52E42E39D
:102A7000C42E42E0D42E35ECE32E33E0F32E0CE1ED
:102A800012E040910801509109014C0F5D1F42591D
:102A90005E4FF501608171818281938124E030E095
:102AA0000E944614882309F045C1409108015091C5
:102AB00009014C0F5D1F4E585E4FF8016081718116
:102AC0008281938124E030E00E944614882309F03B
:102AD00031C140910801509109014C0F5D1F4A58C6
:102AE0005E4FF701608171818827992722E030E0ED
:102AF0000E944614882309F01DC14091080150919D
:102B000009014C0F5D1F48585E4FF60160817181CD
:102B10008281938124E030E00E944614882309F0EA
:102B200009C12E9684E090E0A80EB91EC80ED91EE9
:102B3000E2E0F0E0EE0EFF1E0C5F1F4FC634D10541
:102B400009F09FCFC0E0D0E02CEDA22E23E0B22E02
:102B500098E0C92E92E0D92E8FE0E82E83E0F82E7F
:102B600001EF13E040910801509109014C0F5D1FE6
:102B70004B545E4FF501608171818281938124E025
:102B800030E00E944614882309F0D4C04091080127
:102B9000509109014C0F5D1F47545E4FF801608151
:102BA00071818281938124E030E00E944614882361
:102BB00009F0C0C040910801509109014C0F5D1F00
:102BC00043545E4FF701608171818281938124E0DB
:102BD00030E00E944614882309F0ACC040910801FF
:102BE000509109014C0F5D1F4F535E4FF6016081FC
:102BF00077278827992721E030E00E944614882310
:102C000009F098C02D9684E090E0A80EB91E0894B3
:102C1000C11CD11CE80EF91E0C5F1F4FC732D10535
:102C200009F0A0CF409108015091090144525E4F34
:102C30006091FC01772767FD7095872F972F21E022
:102C400030E00E944614882309F074C040910801C6
:102C50005091090143525E4F6091FF01772767FD54
:102C60007095872F972F21E030E00E94461488232B
:102C700009F060C0409108015091090142525E4F35
:102C800060911E0377278827992721E030E00E9472
:102C90004614882309F04EC0409108015091090163
:102CA00041525E4F6091B20377278827992721E030
:102CB00030E00E9446148823E9F5409108015091C4
:102CC000090140525E4F609180037727882799273A
:102CD00021E030E00E944614882361F5409108010C
:102CE000509109014F515E4F609126017727882747
:102CF000992721E030E00E9446148823D9F44091BE
:102D00000801509109014E515E4F6091220470916B
:102D100023048827992722E030E00E944614882364
:102D200049F464EF71E08EE591E00E94941480E034
:102D300090E002C081E090E0DF91CF911F910F9170
:102D4000FF90EF90DF90CF90BF90AF9008950F93DA
:102D50001F93CF93DF934091080150910901465092
:102D60005F4F60914703772767FD7095872F972FF7
:102D700021E030E00E944614882309F029C14091E7
:102D800008015091090145505F4F60911F0477275A
:102D900067FD7095872F972F21E030E00E94461441
:102DA000882309F015C14091080150910901445050
:102DB0005F4F6091FD037091FE038091FF0390913E
:102DC000000422E030E00E944614882309F000C18C
:102DD000409108015091090142505F4F6091B80342
:102DE00077278827992721E030E00E94461488231E
:102DF00009F0EEC0409108015091090141505F4F28
:102E000060910A0377278827992721E030E00E9404
:102E10004614882309F0DCC0409108015091090153
:102E200040505F4F6091B9037091BA03882799278A
:102E300022E030E00E944614882309F0C9C0409186
:102E40000801509109014B5F5E4F60910F02709134
:102E500010028827992722E030E00E944614882338
:102E600009F0B6C04091080150910901495F5E4FD9
:102E70006091EE037091EF038827992722E030E0FC
:102E80000E944614882309F0A3C040910801509184
:102E90000901475F5E4F60911701709118018091A1
:102EA000190190911A0124E030E00E944614882311
:102EB00009F08EC040910801509109014E5F5E4FAC
:102EC0006091230177278827992721E030E00E942D
:102ED0004614882309F07CC04091080150910901F3
:102EE0004D5F5E4F6091870377278827992721E000
:102EF00030E00E944614882309F06AC0409108011E
:102F0000509109014C5F5E4F60917B0377278827C2
:102F1000992721E030E00E944614882309F058C028
:102F2000C0E0D0E00DE413E04091080150910901A8
:102F30004C0F5D1F435F5E4FF801608171818827F0
:102F4000992722E030E00E944614882309F040C00F
:102F500022960E5F1F4FC630D10531F7C0E0D0E09A
:102F60000DE311E040910801509109014C0F5D1FE4
:102F70004B5F5F4FF801608177278827992721E011
:102F800030E00E944614882319F521960F5F1F4FE9
:102F9000CA30D10539F740910801509109014C5EC2
:102FA0005E4F609105047091060480910704909132
:102FB000080424E030E00E944614882349F46DE5BB
:102FC00071E08AEF90E00E94941480E090E002C0EB
:102FD00081E090E0DF91CF911F910F9108951F93B1
:102FE000CF93DF93E0910801F0910901EF01C80F41
:102FF000D91F20E030E010E0AB01481B590B09C09D
:10300000DE01A20FB31F0E94B57C802D180F2F5F29
:103010003F4F24173507A1F7DF01A60FB71F0E9406
:10302000B57C802D90E0181709F491E081E0982795
:10303000892F9927DF91CF911F910895CF92EF9219
:10304000FF920F931F934091080150910901DA01FB
:1030500012960E94B57C802D843091F0E09036036A
:10306000F09037030091620310916303F1E0CF2EDB
:1030700021E046E46AE08AEE90E00E94C62BFFCF92
:103080009A012B5F3F4FEDE3F1E0D9010E94B57C3F
:10309000802D81932F5F3F4F81E0E734F807A9F738
:1030A000DA011F9694E0E2E1F1E0192E0E94BD7C66
:1030B000A0910801B0910901579682E0E8E1F2E0A1
:1030C000182E0E94BD7CA0910801B09109015E9666
:1030D000E3E1F2E0192E0E94BD7CA0910801B091BD
:1030E00009019896EEEFF2E0192E0E94BD7CA091A6
:1030F0000801B0910901D296E2E3F3E0192E0E9493
:10310000BD7CA0910801B0910901DC96EBE0F4E0F0
:10311000192E0E94BD7CA0910801B091090153961F
:10312000E7E3F1E0192E0E94BD7C40E050E032E080
:1031300085E591E0A0910801B0910901A40FB51FA8
:10314000AA5BBF4FFC01132E0E94BD7C4E5F5F4FF8
:1031500002964C38510571F7A0910801B091090110
:10316000A450BF4FEDEFF3E0132E0E94BD7C809181
:10317000080190910901DC01A250BF4F0E94B57C6B
:10318000202D2093B803DC01A150BF4F0E94B57CD5
:10319000202D20930A0380509F4FE9EBF3E0DC01E0
:1031A000132E0E94BD7CA0910801B0910901AB5F74
:1031B000BE4FEFE0F2E0132E0E94BD7CA09108010B
:1031C000B0910901A95FBE4FEEEEF3E0132E0E940D
:1031D000BD7CA0910801B0910901A75FBE4F84E0BA
:1031E000E7E1F1E0182E0E94BD7C809108019091EA
:1031F0000901DC01A650BF4F0E94B57C202D209311
:10320000470385509F4FDC010E94B57C202D209301
:103210001F0420E030E042E08DE493E0A09108013B
:10322000B0910901A20FB31FA35FBE4FFC01142E82
:103230000E94BD7C2E5F3F4F02962830310571F70A
:10324000A0910801B0910901AC5EBE4F84E0E5E0B9
:10325000F4E0182E0E94BD7C809105049091060434
:10326000A0910704B0910804805A9648A140B0404C
:1032700060F084E690E0A0E0B0E0809305049093D5
:103280000604A0930704B09308048091080190916C
:103290000901DC01AC5FBE4F0E94B57C202D20935C
:1032A0007B03DC01AE5FBE4F0E94B57C202D2093D6
:1032B00023018D5F9E4FDC010E94B57C202D209361
:1032C00087036091FD037091FE038091FF0390914D
:1032D000000424E630E040E050E00E94CE7B2091E4
:1032E000B8033327442755270E94147C2B5F3F4F98
:1032F0004F4F5F4FCA01B9012AE030E040E050E093
:103300000E94147C79018A012093330130933401A7
:10331000409335015093360160E472E48FE090E011
:103320000E94147C2B5F3F4F4F4F5F4FCA01B90182
:103330002AE030E040E050E00E94147C3093250108
:103340002093240117FD05C0C801B7010E94EB7846
:1033500014C0C801B70161707070807090701695CC
:103360000795F794E7946E297F29802B912B0E9473
:10337000EB789B01AC010E940E769B01AC0165EEDF
:1033800078E38EED91E40E9459779B01AC0160E0F7
:1033900070E080E89FE30E94597720E030E048EC3D
:1033A00052E40E943B7620E030E040EA50E40E9484
:1033B0000E7620E030E040E251E40E9459770E940E
:1033C0008A7470938B0360938A0380910A03992710
:1033D0002091B9033091BA03FC01E29FC001E39F41
:1033E000900DF29F900D112466E070E00E94ED7B3D
:1033F0009B014427552760E876E988E990E00E9420
:10340000367C30934B0120934A011F910F91FF901E
:10341000EF90CF900895CF92DF92EF92FF920F93AB
:103420001F93CF93DF93CDB7DEB722970FB6F894F3
:10343000DEBF0FBECDBFA0910801B0910901A05A17
:10344000BE4F94E0EFE1F1E0192E0E94BD7CA09107
:103450000801B0910901A25ABE4F82E0FE013196E7
:10346000182E0E94BD7CA0910801B0910901AC59B1
:10347000BE4FEDE5F3E0192E0E94BD7CA09108013E
:10348000B0910901A859BE4FE6E0F3E0182E0E9462
:10349000BD7CA0910801B0910901A659BE4FECEE88
:1034A000F1E0192E0E94BD7C89819A81909385005C
:1034B0008093840080E090E0B5ECEB2EB3E0FB2E2F
:1034C00024E032E002E312E06CE172E048E953E00C
:1034D000A0910801B0910901A80FB91FA259BE4FD0
:1034E000FA01122E0E94BD7CA0910801B091090141
:1034F000A80FB91FAE58BE4FFB01122E0E94BD7C13
:10350000A0910801B0910901A80FB91FAA58BE4F98
:10351000F701132E0E94BD7CA0910801B091090112
:10352000A80FB91FA858BE4FF801122E0E94BD7CEB
:103530000E964C5F5F4F6C5F7F4F0C5F1F4FE2E05A
:10354000F0E0EE0EFF1E8634910509F0C1CF20E0B9
:1035500030E0A8E0EA2EA2E0FA2E94E081E00FE04D
:1035600013E061EF73E04CED53E0A0910801B091DE
:103570000901A20FB31FAB54BE4FFA01192E0E94CE
:10358000BD7CA0910801B0910901A20FB31FA754FF
:10359000BE4FFB01192E0E94BD7CA0910801B09185
:1035A0000901A20FB31FA354BE4FF801192E0E94A8
:1035B000BD7CA0910801B0910901A20FB31FAF53C8
:1035C000BE4FF701182E0E94BD7C235F3F4F4C5F1A
:1035D0005F4F6C5F7F4F0C5F1F4F0894E11CF11C25
:1035E0002732310509F0C1CFA0910801B09109013E
:1035F000A452BE4FECEFF1E0182E0E94BD7CA091CA
:103600000801B0910901A352BE4FEFEFF1E0182E6F
:103610000E94BD7CA0910801B0910901A252BE4F49
:10362000EEE1F3E0182E0E94BD7CA0910801B0915C
:103630000901A152BE4FE2EBF3E0182E0E94BD7CBF
:10364000A0910801B0910901A052BE4FE0E8F3E05B
:10365000182E0E94BD7CA0910801B0910901AF51C4
:10366000BE4FE6E2F1E0182E0E94BD7CA091080159
:10367000B0910901AE51BE4F82E0E2E2F4E0182EB3
:103680000E94BD7C22960FB6F894DEBF0FBECDBF60
:10369000DF91CF911F910F91FF90EF90DF90CF902E
:1036A000089538983998409A419A1092B9008AE062
:1036B0008093B800089584EA8093BC008091BC0098
:1036C00087FFFCCF089584E98093BC008091BC0003
:1036D00084FDFCCF08958093BB0084E88093BC00F8
:1036E0008091BC0087FFFCCF08958093BB0084E8E5
:1036F0008093BC008091BC0087FFFCCF089584E8D4
:103700008093BC008091BC0087FFFCCF8091BB0000
:10371000992787FD9095089584EC8093BC00809153
:10372000BC0087FFFCCF8091BB00992787FD909557
:1037300008958F5F8093BB0084E88093BC008091E4
:10374000BC0087FFFCCF08950E945B1B88E30E94AA
:103750006B1B80EA0E94751B80E00E94751B0E9413
:10376000631B08950E945B1B88E30E946B1B80EA29
:103770000E94751B87E40E94751B0E94631B0895BD
:103780000E945B1B88E30E946B1B88EA0E94751BEA
:103790000E94631B0E945B1B88E30E94991B0E948E
:1037A0008C1B0E948C1B809348030E948C1B0E94E0
:1037B0008C1B80930B020E948C1B0E947F1B8093AA
:1037C00027010E94631B08950E94C01B20910B02D9
:1037D00080914703281B20930B0290912701809131
:1037E0001F04981B9093270127FD219597FD919524
:1037F0008091FF01821714F42093FF018091FC0156
:10380000891714F49093FC010895369903C081E060
:1038100090E0089586B1992787FD909580959095C1
:103820008827990F881F9927880F991F0895AF92AD
:10383000BF92CF92DF92EF92FF920F931F9340912E
:10384000D3038CE3489FA00111248091D4039927CE
:1038500020E13EE0BC01629FC001639F900D729F1A
:10386000900D112420915603820F911D480F591F6E
:103870005A01CC24B7FCC094DC2C2EC042E0E42ECC
:10388000F12C012D112DEA0CFB1C0C1D1D1D80912E
:10389000D3032CE3829FC00111242091D40333274A
:1038A00040E15EE0B901649F9001659F300D749F17
:1038B000300D112440915603240F311D820F931FA8
:1038C000AA2797FDA095BA2FE816F9060A071B0745
:1038D00018F481E090E006C00E94051C882371F670
:1038E00080E090E01F910F91FF90EF90DF90CF90DC
:1038F000BF90AF90089524E6E0E4FCE9CF01019782
:10390000F1F72150D9F708952AE0E0E4FCE9CF016E
:103910000197F1F72150D9F708950F931F93082FBE
:1039200010E003C00E947B1C1F5F1017D9F71F9186
:103930000F910895982F80917C03981709F491E0D6
:103940009093020310920303109204030E94051C3B
:103950008823E1F762E080913603909137030E945B
:10396000D128089580910203873009F45DC0883022
:1039700080F48330F1F1843030F4813001F1823011
:1039800009F072C024C08530E9F1863008F043C0E8
:1039900027C08A3009F451C08B3038F4883009F4DC
:1039A00046C0893009F060C045C08C3009F44BC076
:1039B0008C3008F445C08F3009F056C04EC00E94CC
:1039C000EB3A882309F450C08091020343C08091F0
:1039D0000502882311F483E03DC00E94A75035C042
:1039E00080910104882311F485E034C00E94BB5209
:1039F0002CC080917F03882311F484E02BC00E94A7
:103A0000B15823C080915201882311F486E022C06E
:103A10000E949F6A1AC080914403882311F487E0B2
:103A200019C00E94EA6B11C00E946B660EC00E9412
:103A30007B5F0BC00E94996408C00E94C56205C0EC
:103A40000E942D6102C00E94265D882369F080914A
:103A500002038F5F0E949A1C08950E94504488239D
:103A600019F081E00E949A1C08951F920F920FB6E0
:103A70000F9211242F923F924F925F926F927F92FA
:103A80008F929F92AF92BF92CF92DF92EF92FF926E
:103A90000F931F932F933F934F935F936F937F9356
:103AA0008F939F93AF93BF93EF93FF93CF93DF9346
:103AB000CDB7DEB72697DEBFCDBF1B9B18C2809166
:103AC00069002091D5033091D60384FFBBC11092C9
:103AD000B100809169008F7E809369008091F80227
:103AE0009091F902A901481B590B5093130440937C
:103AF000120480914A0190914B019E838D8382171D
:103B00009307C8F4281B390B3093D6032093D503B1
:103B100080915D0390915E03A0915F03B09160037B
:103B20000196A11DB11D80935D0390935E03A09348
:103B30005F03B0936003E091F601F091F701FC831D
:103B4000EB833A9708F0AAC080913002909131023D
:103B5000895E934008F4A2C01092310210923002A4
:103B6000409156035527609183037091840380919F
:103B70006503909166039A01281B390B88EE93E048
:103B8000289F7001299FF00C389FF00C1124E60E3D
:103B9000F71E8091BC039091BD03E81AF90AF092D8
:103BA0005101E09250017093BD036093BC035093A8
:103BB000660340936503A090D503B090D603CC2450
:103BC000DD2420905D0330905E0340905F035090B1
:103BD00060032D813E813901882499248091AC03B2
:103BE0009091AD03A091AE03B091AF03A2019101FA
:103BF000281B390B4A0B5B0BCA01B901A4019301C5
:103C00000E94CE7B6A0D7B1D8C1D9D1D20911A0488
:103C100030911B0440911C0450911D04621B730BD6
:103C2000840B950B28EE33E040E050E00E94CE7B01
:103C3000A40193010E94147C39014A0120932C03B2
:103C400030932D0340932E0350932F03A0921A0418
:103C5000B0921B04C0921C04D0921D042092AC03AD
:103C60003092AD034092AE035092AF03002711276C
:103C700060EA7CE880E090E0A80197010E94367C31
:103C8000C401B3010E94CE7B28EE33E040E050E057
:103C90000E94147C30934603209345034B815C8142
:103CA000452B09F424C18091300290913102815B4F
:103CB000944008F41CC1109231021092300280919D
:103CC000D5039091D6039A83898360905D037090A9
:103CD0005E0380905F0390906003ED81FE815F0141
:103CE000CC24DD247C010027112780912C019091A8
:103CF0002D01A0912E01B0912F01A4019301281B49
:103D0000390B4A0B5B0BCA01B901A60195010E9450
:103D1000CE7BE60EF71E081F191F809110049091AC
:103D20001104AA27BB27E81AF90A0A0B1B0BC801C2
:103D3000B70120E137E240E050E00E94CE7BA601CF
:103D400095010E94147C19012A0120937503309378
:103D50007603409377035093780349815A815093B7
:103D600011044093100460922C0170922D018092F6
:103D70002E0190922F01E0908400F0908500A09099
:103D80001F01B0902001C0902101D0902201002796
:103D900011278091570390915803A0915903B09136
:103DA0005A03A6019501281B390B4A0B5B0BCA016C
:103DB000B9012091240130912501442755270E9403
:103DC000CE7BE60EF71E081F191F80914E019091C1
:103DD0004F01AA27BB27E81AF90A0A0B1B0B2091EF
:103DE0003301309134014091350150913601C801C1
:103DF000B7010E94CE7B6093C0037093C103809390
:103E0000C2039093C30320918400309185003093C6
:103E10004F0120934E01A0925703B0925803C092D5
:103E20005903D0925A0328EE33E040E050E00E945C
:103E3000147CC201B1010E94147C3093860320934C
:103E4000850355C091E09093B1008091700082602D
:103E5000809370008FE98093B300B99A80916900D4
:103E60008061809369009093BB033093F9022093A3
:103E7000F8022F5F3F4F3093D6032093D503109263
:103E8000B200809127038F5F8093270340916403E2
:103E90004817B9F480917E03823099F48091D10360
:103EA0009091D2032091830330918403820F931F5A
:103EB000909325048093240440933A0310927E0348
:103EC00016C080917E03813091F48091830390919C
:103ED0008403909581959F4F9093D2038093D10353
:103EE000109227031092640382E080937E0326964B
:103EF000F894DEBFCDBFDF91CF91FF91EF91BF91DD
:103F0000AF919F918F917F916F915F914F913F9171
:103F10002F911F910F91FF90EF90DF90CF90BF9066
:103F2000AF909F908F907F906F905F904F903F9059
:103F30002F900F900FBE0F901F9018951F920F9209
:103F40000FB60F9211248F939F938091D503909178
:103F5000D60301969093D6038093D5039F918F91BA
:103F60000F900FBE0F901F9018951F920F920FB6D3
:103F70000F9211248F939F93AF93BF9380911F0152
:103F800090912001A0912101B09122010196A11DE3
:103F9000B11D80931F0190932001A0932101B09344
:103FA0002201BF91AF919F918F910F900FBE0F9003
:103FB0001F901895AF92BF92CF92DF92EF92FF922F
:103FC0000F931F93809106029091070201969093A0
:103FD00007028093060220918A0330918B03821797
:103FE000930708F4D0C0E0908400F0908500109210
:103FF000070210920602A0901F01B0902001C0900D
:104000002101D0902201002711278091E801909191
:10401000E901A091EA01B091EB01A6019501281BED
:10402000390B4A0B5B0BCA01B90120912401309175
:104030002501442755270E94CE7BE60EF71E081F58
:10404000191FE0922303F092240300932503109399
:1040500026038091670390916803F701E81BF90B31
:10406000F093F701E093F6012091840030918500F0
:10407000C901AA27BB278093670390936803A09385
:104080006903B0936A03232B39F4B19B05C00894EC
:10409000A11CB11CC11CD11CA092E801B092E90185
:1040A000C092EA01D092EB012091260430912704BE
:1040B0008091530390915403820F931F8E0F9F1F83
:1040C00063E070E00E94ED7B70931E0160931D0120
:1040D0003093540320935303F0932704E093260472
:1040E00031E06C32730708F04EC080910603909166
:1040F00007038617970720F470930703609306035E
:104100008091C5039091C6038617970740F480916C
:104110000802882321F47093C6036093C50380913D
:10412000C7039091C8038617970740F4809109024E
:10413000882321F47093C8036093C7038091C90357
:104140009091CA038617970740F480910A0288234A
:1041500021F47093CA036093C9038091CB039091BB
:10416000CC038617970720F47093CC036093CB039E
:104170008091CD039091CE038617970720F470931A
:10418000CE036093CD031F910F91FF90EF90DF90CE
:10419000CF90BF90AF9008959F92AF92BF92CF9271
:1041A000DF92EF92FF920F931F9384E00E943A10E8
:1041B0000E944810AA2797FDA095BA2FBC01CD01F7
:1041C0000E94EB787B018C0120E030E040E050E081
:1041D0000E941378882309F495C031E0932E9092C1
:1041E000C403209132033091330340913403509142
:1041F0003503C801B7010E943B766B017C01009139
:104200003D0310913E03B801882777FD8095982FD4
:104210000E94EB7817FF06C020E030E040E857E44A
:104220000E940E76A70196010E94DD759B01AC01EC
:10423000C701B6010E94597720E030E041E653E41F
:104240000E943B769B01AC0160E070E080E89FE358
:104250000E94597725ED39EA4EE858E30E94DD7552
:104260009B01AC0160E070E080E89FE30E94597719
:104270000E94887C7B018C012FE632E143E859E300
:104280000E943B7625E738EC4DEC5AE30E940E760F
:104290005B016C01A8019701C801B7010E943B7640
:1042A000A80197010E943B7625E93FEB46E554E3E0
:1042B0000E943B769B01AC01C601B5010E940E76BF
:1042C0009B01AC0160E070E080E89FE30E945977B9
:1042D0000E9454799B01AC01DC01CB0182519140D9
:1042E000A040B040873C9105A105B10540F5B9015A
:1042F000615171407093FB026093FA026E36710552
:1043000064F103C01092C4031AC080913103882362
:1043100039F16D38710524F1109231032AE0A22E93
:1043200091E0C92E81E1E82EF12C08E210E022E0B4
:1043300041E464E380EC94E00E94A15411C0109227
:10434000FB021092FA0281E0809331038091C40352
:10435000882331F060E070E0DCCF90923103D9CF58
:104360001F910F91FF90EF90DF90CF90BF90AF9093
:104370009F900895AF92BF92CF92DF92EF92FF92FB
:104380000F931F9386E00E943A108091BB0388230D
:1043900039F080911D0190911E01459708F471C07C
:1043A000E0901802F0901902002711277AE0EE0C35
:1043B000FF1C001F111F7A95D1F70E944810AA27F1
:1043C00097FDA095BA2F20E034E040E050E0281B94
:1043D000390B4A0B5B0BC801B7010E94367C8091F8
:1043E000180290911902AA27BB27281B390B4A0BE8
:1043F0005B0BCA01B90122E330E040E050E00E94CB
:10440000367CCA01B9010E94EB7820E030E048EC2C
:1044100052E40E9459770E94887C7B018C0125EF31
:104420003DEB46E859E30E943B7628EC3EEC4BE539
:104430005BE30E940E765B016C01C801B7010E942C
:10444000B17C22E433ED4FE256E30E943B769B01C0
:10445000AC01C601B5010E940E769B01AC0160E083
:1044600070E080E291E40E94597720E038EB4AE264
:1044700055E40E94DD750E94547970936502609343
:1044800064028091640290916502889734F580916E
:10449000300190913101892B01F184E00E94523169
:1044A0006B30710581059105C0F080911E04882351
:1044B000A1F465E0A62E51E0C52E41E2E42EF12CD8
:1044C00008E210E022E04EE267E38BE293E00E9414
:1044D000A15410923101109230011F910F91FF9061
:1044E000EF90DF90CF90BF90AF900895BF92CF92A2
:1044F000DF92EF92FF920F931F93CF93DF938C0184
:10450000B801882777FD8095982F0E94EB7817FFD8
:1045100006C020E030E040E857E40E940E7620918B
:104520000B0430910C0440910D0450910E040E9434
:104530003B766B017C01BB24C5E5D1E00881198184
:10454000B801882777FD8095982F0E94EB7817FF98
:1045500006C020E030E040E857E40E940E769B0160
:10456000AC01C701B6010E947F7887FF05C0B394F4
:10457000229686E4B81611F78B2D992787FD909522
:10458000DF91CF911F910F91FF90EF90DF90CF902F
:10459000BF900895AF92BF92CF92DF92EF92FF92B9
:1045A0000F931F93E0901F01F090200100912101D3
:1045B00010912201A0906D03B0906E03C0906F0324
:1045C000D0907003C801B7016A197B098C099D0955
:1045D0002AE030E040E050E00E94CE7B615177421B
:1045E0008040904080F1A0927103B0927203C0921B
:1045F0007303D09274038091900390919103A091E2
:104600009203B09193038093940390939503A093A6
:104610009603B0939703E0926D03F0926E030093BC
:104620006F031093700380915D0390915E03A091DE
:104630005F03B09160038093900390939103A093E4
:104640009203B09393038091710390917203A091B0
:104650007303B0917403E81AF90A0A0B1B0BC80123
:10466000B7012AE030E040E050E00E94CE7B61518B
:1046700077428040904010F160915D0370915E033D
:1046800080915F0390916003209194033091950392
:104690004091960350919703621B730B840B950B0B
:1046A00024E630E040E050E00E94CE7BA801970174
:1046B0000E94147C30938203209381031F910F91F9
:1046C000FF90EF90DF90CF90BF90AF9008956F92E2
:1046D0007F928F929F92AF92CF92EF92FF920F9321
:1046E0001F9380915401863009F421C180912004E8
:1046F000909121043C018824992460915D0370917C
:104700005E0380915F03909160032091F8013091E6
:10471000F9014091FA015091FB01621B730B840B6C
:10472000950B28EE33E040E050E00E94147C621AC2
:10473000730A840A950A88E068167104810491045A
:1047400034F580911B0190911C01892B01F184E0CB
:104750000E9452316531710581059105C0F080914B
:104760001E048823A1F425E0A22E91E0C92E88E141
:10477000E82EF12C00E110E023E04EE266E480ED4B
:1047800093E00E94A15410921C0110921B01809191
:104790001D0190911E01892B21F48091BB03882378
:1047A00019F41092E701C3C080918803882309F4AB
:1047B00053C084E00E945231643071058105910537
:1047C00008F44AC080911E04882309F045C0109265
:1047D00088039091890380915401682F772767FDA2
:1047E0007095690F711D9B01442737FD4095542F2B
:1047F00062167306840695065CF4D401C30106961E
:10480000A11DB11D281739074A075B072CF110C0FD
:10481000D401C3010597A109B10982179307A40721
:10482000B507D4F096E06916710481049104A4F0F0
:10483000709321046093200480915D0390915E0346
:10484000A0915F03B09160038093F8019093F90108
:10485000A093FA01B093FB0190910B028091270184
:1048600097FD919587FD819584300CF060C0943060
:104870000CF05DC08FEF20E0E6E4F2E040814817E5
:1048800008F4842F241708F4242F3196A2E0E4368C
:10489000FA07A1F7992705963327821793070CF497
:1048A00046C09091890380915401682F772767FD56
:1048B0007095690F711D9B01442737FD4095542F5A
:1048C000621673068406950674F484E090E0A0E016
:1048D000B0E0680E791E8A1E9B1E26153705480516
:1048E00059052CF110C0D401C3010397A109B109E6
:1048F00082179307A407B507D4F094E069167104F2
:1049000081049104A4F070932104609320048091A9
:104910005D0390915E03A0915F03B091600380936B
:10492000F8019093F901A093FA01B093FB011F9154
:104930000F91FF90EF90CF90AF909F908F907F90CE
:104940006F900895CF93DF9380915401863009F4DE
:1049500043C0209183033091840320743070809190
:104960000404992728173907B9F185E00E943A1005
:10497000809183038074809304048091F0038F5F9F
:104980008093F0038E3110F01092F0038091F003C9
:10499000C82FDD270E9448100E947622CA5BDD4F97
:1049A00088832FEF90E0E6E4F2E08081821708F43C
:1049B000282F981708F4982F319642E0E436F40730
:1049C000A1F7422F490F512D511DCA0162E070E03D
:1049D0000E94017C60938903DF91CF9108950F932A
:1049E0001F93062F142F40E050E0682F772722C036
:1049F0002C9A20E030E0E02FFF27A0E4BCE905C0BE
:104A0000CD010197F1F72F5F3F4FE217F307C4F78E
:104A10002C9820E030E0E12FFF27A0E4BCE905C09E
:104A2000CD010197F1F72F5F3F4FE217F307C4F76E
:104A30004F5F5F4F64177507DCF61F910F91089564
:104A4000AF92CF92EF92FF920F931F9387E00E9455
:104A50003A100E944810AA2797FDA095BA2FBC01D2
:104A6000CD010E94EB782091120130911301409109
:104A70001401509115010E943B7620E030E04CE893
:104A800052E40E940E760E948A7470933E036093F3
:104A90003D03665A7440B8F58091BB03882399F1B1
:104AA00080914D01882359F481E080934D018091DC
:104AB0005603809317028EE18093300324C0813027
:104AC00011F590915603809117028917E1F08091BA
:104AD000300381508093300390931702882399F418
:104AE00082E080934D0125E0A22E93E0C92E88E15B
:104AF000E82EF12C00E110E023E04EE266E480E0D5
:104B000094E00E94A1541F910F91FF90EF90CF90DD
:104B1000AF9008958F929F92AF92BF92CF92DF9203
:104B2000EF92FF920F931F93139B23C013980B9840
:104B300083E00E943A100E944810AA2797FDA09592
:104B4000BA2FBC01CD010E94EB7820913701309142
:104B500038014091390150913A010E943B760E9400
:104B60008A749B017093B1036093B0030B9A139AFC
:104B700020C00B9883E00E943A100E944810AA2798
:104B800097FDA095BA2FBC01CD010E94EB78209132
:104B90003701309138014091390150913A010E941A
:104BA0003B760E948A749B017093B1036093B003BB
:104BB0000B9AB9018827992728EE33E040E050E0AE
:104BC0000E94CE7B20913D0330913E034427552720
:104BD0000E94147C49015A0180917D03823009F0C2
:104BE00064C057FD05C0CA01B9010E94EB7814C02A
:104BF000CA01B901617070708070907056954795C8
:104C000037952795622B732B842B952B0E94EB787D
:104C10009B01AC010E940E766B017C0100914F0359
:104C200010915003B801882777FD8095982F0E9436
:104C3000EB7817FF06C020E030E040E857E40E9420
:104C40000E7624EA30E74DE75FE30E943B769B0156
:104C5000AC01C701B6010E94B57888231CF481E03D
:104C600080937D030091510310915203B80188276E
:104C700077FD8095982F0E94EB7817FF06C020E003
:104C800030E040E857E40E940E762EEA37E441E82F
:104C90005FE30E943B769B01AC01C701B6010E9415
:104CA000497818160CF45EC04FC0813009F05CC022
:104CB00057FD05C0CA01B9010E94EB7814C0CA01B2
:104CC000B9016170707080709070569547953795F6
:104CD0002795622B732B842B952B0E94EB789B01DD
:104CE000AC010E940E766B017C0100914F03109184
:104CF0005003B801882777FD8095982F0E94EB78A4
:104D000017FF06C020E030E040E857E40E940E762E
:104D10002EEA37E441E85FE30E943B769B01AC0159
:104D2000C701B6010E94497818161CF482E08093EE
:104D30007D038091510390915203AA27BB278815C8
:104D40009905AA05BB0570F080914D0390914E0323
:104D500096958795AA27BB2788169906AA06BB06AB
:104D600008F051C083E04DC057FD05C0CA01B9012C
:104D70000E94EB7814C0CA01B90161707070807034
:104D800090705695479537952795622B732B842BFA
:104D9000952B0E94EB789B01AC010E940E766B0173
:104DA0007C010091510310915203B801882777FDCF
:104DB0008095982F0E94EB7817FF06C020E030E026
:104DC00040E857E40E940E7624EA30E74DE75FE3BF
:104DD0000E943B769B01AC01C701B6010E94B578E9
:104DE00088231CF482E080937D0380914F0390918F
:104DF0005003AA27BB2788169906AA06BB0618F4F3
:104E000081E080937D0380914F03909150039695AC
:104E10008795AA27BB2788169906AA06BB0618F409
:104E200083E080937D031F910F91FF90EF90DF90BF
:104E3000CF90BF90AF909F908F9008955E9A613011
:104E400039F0623011F45C9804C0633011F45C985E
:104E50005F988EBD0DB407FEFDCF1EBC0DB407FEDE
:104E6000FDCF5F9A5C9A08959C0180916103813027
:104E700011F45E9803C0823009F45E9A613039F013
:104E8000623011F45C9804C0633011F45C985F9850
:104E9000823031F4832F99278EBD0DB407FEFDCFEC
:104EA0002EBD0DB407FEFDCF5F9A5C9A0895209148
:104EB0006103213011F45E9A03C0223009F45E9838
:104EC000413039F0423011F45C9804C0433011F4A1
:104ED0005C985F988EBD0DB407FEFDCF6EBD0DB41E
:104EE00007FEFDCF5F9A5C9A08951F93182F80915B
:104EF0006103813069F4412F60E970E08FEE90E04A
:104F00000E945727412F60E470E080E090E007C0E6
:104F1000823039F4412F60E070E08EEA90E00E9428
:104F200057271F9108951F93182F80916103813097
:104F300069F4412F60E970E08FEE90E00E945727FE
:104F4000412F60E070E080E090E007C0823039F4EB
:104F5000412F60E070E08FEA90E00E9457271F9198
:104F60000895EF92FF920F931F93F82E062FE42ED1
:104F7000122F422F60E070E08AEA90E00E945727EB
:104F8000612F8F2D0E941E270150612F802F0E94BC
:104F90001E27612F802F0E941E27612F8E2D0E94B9
:104FA0001E271F910F91FF90EF9008950F931F936D
:104FB000082F162F80916103813041F4602F7727ED
:104FC000412F81E190E00E9457270DC0823059F4B3
:104FD000462F60E070E08BEA90E00E945727612F37
:104FE000802F0E941E271F910F910895CF92DF926C
:104FF000EF92FF921F936C017B01142F60E970E028
:105000008FEE90E00E945727412FB70186E090E095
:105010000E9457276FEA70E06C197D09412F87E0E5
:1050200090E00E9457271F91FF90EF90DF90CF9064
:1050300008958F929F92AF92BF92CF92DF92FF928C
:105040000F931F93CF93DF936C01EB014A0159013A
:10505000F02E80916103813059F5402F60E970E0B6
:105060008FEE90E00E945727402FBE0188E090E02D
:105070000E945727402FB50189E090E00E945727F2
:105080000FEA10E0B8016C197D094F2D8AE090E01D
:105090000E945727081919094F2DB8018BE090E09D
:1050A0000E9457274F2DBE01C6010E94F6272BC034
:1050B000823049F5402F60E070E085E190E00E9489
:1050C0005727602F9E01285F822F0E941E27602F86
:1050D00081E00E941E27602F8A2D885F0E941E2774
:1050E000602F81E00E941E27402F60E070E085E77E
:1050F00090E00E945727602F8C2D0E941E27602F62
:10510000882D0E941E27DF91CF911F910F91FF9054
:10511000DF90CF90BF90AF909F908F900895CF92E7
:10512000DF92EF92FF920F931F93CF93DF9368016B
:10513000E22EFF24C42FDD2777279B012E0D3F1D74
:10514000215030409927AC014C0F5D1F4150504019
:1051500002E00E94192880916103823039F442E014
:1051600060E070E08CE590E00E945727CE9D8001C2
:10517000CF9D100DDE9D100D1124C0E0D0E005C0C4
:1051800062E0C6010E9434272196C017D107C1F7FB
:10519000DF91CF911F910F91FF90EF90DF90CF9013
:1051A00008950F931F93CF93DF93EC01162F8091F7
:1051B00061038130F9F4062F23E830E04FEA50E034
:1051C00060E070E080E090E00E9419285E98113065
:1051D00039F0123011F45C9804C0133011F45C986B
:1051E0005F9880EC9AE5CEBD0DB407FEFDCF019728
:1051F00079F1F9CF823061F5062F24E830E040EBF9
:1052000050E060E070E080E090E00E941928412FBB
:1052100060E070E08CE590E00E9457275E9A1130C4
:1052200039F0123011F45C9804C0133011F45C981A
:105230005F9820EC3AE58D2F99278EBD0DB407FEBF
:10524000FDCFCEBD0DB407FEFDCF2150304099F704
:105250005F9A5C9ADF91CF911F910F9108952F92E1
:105260003F924F925F926F927F928F929F92AF92F6
:10527000BF92CF92DF92EF92FF920F931F93CF9343
:10528000DF93CDB7DEB727970FB6F894DEBF0FBE1A
:10529000CDBF9A8389836B83922E502EDD82CC8280
:1052A000BF82AE8220916103213009F07FC0E92DD9
:1052B000FF278E2D99278E9F30018F9F700C9E9F08
:1052C000700C1124642F77279B01260D371D215068
:1052D00030404B81842F9927402F5527DA01AE9F0C
:1052E000A001AF9F500DBE9F500D1124480F591FB4
:1052F00041505040082D0E941928CC24DD2411E093
:10530000E12EF12C4DC0B1E0EB16F10429F5692D29
:105310007727C6010E94ED7B852D9927689FF001B4
:10532000699FF00D789FF00D1124B3E0F695E79595
:10533000BA95E1F7812F86958695869529813A81E0
:10534000280F311DE20FF31FEE0FFF1FE259F14F3F
:105350004490E12CE1E0FE2EF694E794842D992709
:105360008E219F21892B11F400E011C000E006C0BE
:10537000682D8C819D810E9434270F5F0915C1F72C
:1053800008C0682D8E819F810E9434270F5F091508
:10539000C1F71F5F511608F0B6CF0894C11CD11C8D
:1053A000C614D70409F495C011E0F4CF223009F0F7
:1053B00090C0A92CBB248E2D99278A9D10018B9D0E
:1053C000300C9A9D300C1124C42EDD2466247724E1
:1053D00061E0E62EF12C78C031E0E316F10409F02B
:1053E0004CC04B81842F9927212F3327285F3F4FB3
:1053F0002A9DA0012B9D500D3A9D500D112428503F
:105400003040480F591F2A9DF0012B9DF00D3A9D09
:10541000F00D1124082D9601B6018E0F9F1F0E94DA
:105420001928482D60E070E08CE590E00E94572735
:10543000692D7727C3010E94ED7B852D9927689FF1
:10544000F001699FF00D789FF00D112453E0F6955F
:10545000E7955A95E1F7812F869586958695A981DE
:10546000BA81A80FB11DEA0FFB1FEE0FFF1FE25913
:10547000F14F4490E12C31E0F32EF694E794842D23
:1054800099278E219F21892B11F400E011C000E0A3
:1054900006C0682D8C819D810E9434270F5F0915FD
:1054A000C1F708C0682D8E819F810E9434270F5F4D
:1054B0000915C1F71F5F511608F08ECF0894611CC3
:1054C000711C0894C11CD11C6214730411F011E00A
:1054D000F2CF27960FB6F894DEBF0FBECDBFDF9197
:1054E000CF911F910F91FF90EF90DF90CF90BF90E1
:1054F000AF909F908F907F906F905F904F903F9074
:105500002F9008952F923F924F925F926F927F92C9
:105510008F929F92AF92BF92CF92DF92EF92FF92C3
:105520000F931F93CF93DF93CDB7DEB72E970FB6B0
:10553000F894DEBF0FBECDBF982E562F1E870D8765
:1055400017017C2C8CE2981619F414E0412E08C047
:105550009AE3991619F4B3E04B2E02C0A8E04A2E44
:1055600030916103313009F072C0822F99276C01AC
:105570000894C11CD11C9C01220F331F280F391F16
:10558000220F331F220F331F642F7727655F7F4F52
:10559000260F371F6B507040852F9927442D5527B4
:1055A000FA01EC9DA001ED9D500DFC9D500D1124C4
:1055B000480F591F41505040072D0E9419288CE078
:1055C000989E7001112488E090E0E80EF91E662490
:1055D000F70154908824992428C0852D8B2119F433
:1055E00000E010E014C000E010E005C0672D8D85DC
:1055F0009E850E943427802F99270F5F1F4F8C159F
:105600009D05A4F30BC0672DC1010E943427802F94
:1056100099270F5F1F4F8C159D05ACF3B694A3948B
:10562000A414D9F60894811C911C882D99278C15F7
:105630009D0524F4AA2470E8B72EF2CF6394089451
:10564000E11CF11CFCE06F1609F487C0C1CF3230B9
:1056500009F083C0822F99275C010894A11CB11C1A
:105660009C01220F331F280F391F220F331F220FD7
:10567000331F642F7727655F7F4F260F371F6B50CF
:105680007040852F9927442D5527FA01EA9DA001E6
:10569000EB9D500DFA9D500D1124480F591F41509C
:1056A0005040072D0E941928472D60E070E08CE5DE
:1056B00090E00E9457278CE0989EF0011124E85F4B
:1056C000FF4FDE0111969E01235F3F4F84918D9322
:1056D0003196A217B307D1F7882400E8902E38C07E
:1056E0006E010894C11CD11CF6018081892119F436
:1056F00000E010E014C000E010E005C0672D8D85CB
:105700009E850E943427802F99270F5F1F4F8A158F
:105710009B05A4F30BC0672DC1010E943427802F85
:1057200099270F5F1F4F8A159B05ACF30894C11C86
:10573000D11CCE010D96C816D906B1F60894E11C0D
:10574000F11C8E2D99278A159B0554F2969483940B
:10575000841419F0EE24FF24F4CF2E960FB6F8949B
:10576000DEBF0FBECDBFDF91CF911F910F91FF9094
:10577000EF90DF90CF90BF90AF909F908F907F90F1
:105780006F905F904F903F902F9008952F923F928F
:105790004F925F926F927F928F929F92AF92BF9241
:1057A000CF92DF92EF92FF920F931F93CF93DF93ED
:1057B000CDB7DEB723970FB6F894DEBF0FBECDBFCF
:1057C0009B838A83D62E242E722E480157013C2CAF
:1057D000822F99279C0143E0220F331F4A95E1F75E
:1057E00038E0432E420E2BEF3FEF829F502C1124C6
:1057F000880F991F880F991F682E619417C0C32CBA
:1058000075018401272D422D6D2D892F99830E94CA
:10581000822AD40C99819C3221F4D60C8CEFD80EBC
:1058200005C09A3319F4D50C9BEFD90EEA81FB81A0
:10583000CF0101969B838A839491992301F7239644
:105840000FB6F894DEBF0FBECDBFDF91CF911F9191
:105850000F91FF90EF90DF90CF90BF90AF909F900F
:105860008F907F906F905F904F903F902F90089512
:105870002F923F924F925F926F927F928F929F9260
:10588000AF92BF92CF92DF92EF92FF920F931F934E
:10589000CF93DF93282E362EB42E422E502E370172
:1058A0004601D02EDD0CDD0CDD0C88E0D80EC0E00A
:1058B000D0E00BC0CA2C74018301252D442D6B2D23
:1058C000832D0E94822ABD0C2196C2159CF38B2D3C
:1058D0009927DF91CF911F910F91FF90EF90DF906B
:1058E000CF90BF90AF909F908F907F906F905F9080
:1058F0004F903F902F9008952F923F924F925F923A
:105900006F927F928F929F92AF92BF92CF92DF92CF
:10591000EF92FF920F931F93CF93DF93CDB7DEB734
:1059200024970FB6F894DEBF0FBECDBF2B013C010C
:105930004983922F802F3E2CCA822A2C9C828B82F4
:105940008B8C20EA421626E8520621E0620620E00F
:10595000720608F07AC0453009F418C230E14316E7
:1059600037E2530630E0630630E0730610F444304B
:10597000B1F4863009F09DC0C82CE98CFA8C0B81FB
:105980001C81222D4A81632D892F0E94822A822D1B
:10599000880F880F880F98E0390E380E8AC028EEDD
:1059A000421623E0520620E0620620E0720618F458
:1059B0003981333071F4A82CC98CDA8CEB80FC80EF
:1059C000022D2A81432D692F84500E94382C982E55
:1059D000CBC024E6421651046104710418F43981E5
:1059E000323071F4A82CC98CDA8CEB80FC80022D4B
:1059F0002A81432D692F83500E94382CD82E0FC145
:105A00002AE0421651046104710418F439813130DE
:105A100071F4A82CC98CDA8CEB80FC80022D2A81D1
:105A2000432D692F82500E94382C382E53C1A82C48
:105A3000C98CDA8CEB80FC80022D2A81432D692FE2
:105A400081500E94382CD82EC1C1C301B20120EA76
:105A500036E841E050E00E94147CDA01C901C82C0C
:105A6000E98CFA8C0B811C812A2D4A81632D805D83
:105A70000E94822ABB24C50173E0880F991F7A9582
:105A8000E1F728E0320E380E3981353091F4C82C18
:105A9000E98CFA8C0B811C81222D4A81632D8CE2CA
:105AA0000E94822AAA0CBB1CAA0CBB1C84E0380EE4
:105AB0003A0CC301B20120E137E240E050E00E941D
:105AC000147CCA01B90120E137E240E050E00E94B5
:105AD000CE7B7B018C01C301B20120EA36E841E0B4
